:020000040800F2
:100000004804002001010008C70D0008070D000882
:10001000C50D0008490100088F0F0008000000000E
:10002000000000000000000000000000EB0D0008D0
:100030004B01000800000000E90D0008ED0D00086C
:100040001B0100081B0100081B0100081B01000820
:100050001B0100081B0100081B0100081B01000810
:100060001B0100081B0100081B0100081B01000800
:100070001B0100081B0100081B0100081B010008F0
:100080001B0100081B0100081B0100081B010008E0
:100090001B0100081B0100081B0100081B010008D0
:1000A0001B0100081B0100081B0100081B010008C0
:1000B0001B010008AD0E00081B0100081B01000811
:1000C0001B0100081B0100081B0100081B010008A0
:1000D0001B0100081B0100081B0100081B01000890
:1000E0001B0100081B0100081B010008DFF80CD0F1
:1000F00000F018F800480047B10F0008480400203D
:100100000648804706480047FEE7FEE7FEE7FEE7B1
:10011000FEE7FEE7FEE7FEE7FEE7FEE7650E000806
:10012000ED000008064C074D06E0E06840F00103D2
:1001300094E8070098471034AC42F6D3FFF7DAFF93
:10014000DC0F0008FC0F0008FEE770472DE9F84FB0
:10015000DFF890A100220AF1040B144601274FF0AA
:100160000F090BF1040E00BF0B6807FA04F52B40D2
:10017000AB4274D1DFF870C14E68A6EB0C0866453F
:100180002BD00DDC032E34D005DC36B3012E19D074
:10019000022E2FD11BE0112E16D0122E2AD119E0DB
:1001A000B8F5881F19D006DCB8F5803F15D0B8F532
:1001B000801F1FD111E0B8F5001F0ED0B8F5041F45
:1001C00018D10AE0CA6815E0CA68121D12E0CA68B0
:1001D00008320FE0CA680C320CE08A682AB1012AA2
:1001E0004FF0080203D0456104E0042202E00561FB
:1001F00000E00022FF2B01D8064601E000F10406D2
:100200004FEA840501D9A5F12005D6F800C009FA06
:1002100005F82CEA080C02FA05F54CEA050CC6F8BC
:1002200000C04D68ED0057D5304DAE6946F001066F
:10023000AE61AD6924F0030605F0010500952C4D73
:1002400006EB050CDCF80850A6074FEA167809FA09
:1002500008F6B543274EB04202D1002610E03BE03D
:10026000254EB04201D101260AE0244EB04201D110
:10027000022605E0224EB04201D1032600E004260A
:1002800006FA08F62E43CCF808604D68DAF80060EC
:10029000ED03554601D51E4300E09E432E604D6898
:1002A000DBF80060AD035D4601D51E4300E09E43D0
:1002B0002E604D68DEF80060ED02754601D51E43E4
:1002C00000E09E432E604D68AD020E4D2E6801D5B4
:1002D0001E4300E09E432E60641C102CFFF444AFCC
:1002E000BDE8F88F0004014000001110001002402A
:1002F0000000014000080140000C014000100140D6
:10030000001401400C040140C2684A40C2607047BA
:100310000AB1016170470904FBE700000148006869
:10032000704700000000002002480168491C01607D
:100330007047000000000020074810B5016841F038
:1003400010010160032000F08BF8002000F006F897
:1003500000F018F8002010BD0020024010B504463F
:1003600007484FF47A710068B0FBF1F000F0FFFA33
:1003700000222146501E00F053F8002010BD00005E
:10038000040000201E4808B5816941F00101816127
:10039000806900F001000090032000F061F8002265
:1003A00011466FF00B0000F03BF8002211466FF091
:1003B0000A0000F035F8002211466FF0090000F045
:1003C0002FF800221146501F00F02AF80022114693
:1003D000101F00F025F800221146901E00F020F8B2
:1003E00000221146501E00F01BF80648416821F01B
:1003F000E0614160416841F00071416008BD00006A
:10040000001002400000014000F01F020121914055
:100410004009800000F1E020C0F8001170470000A2
:10042000F0B40E4B1B680C46C3F30223C3F107055F
:10043000042D00D90425191D072901D2002300E04D
:10044000DB1E012606FA05F1491E214099409E4017
:10045000761E16403143F0BC00F0B6BC0CED00E057
:10046000064900F0070208684FF6FF03184040EA0B
:100470000220034A10430860704700000CED00E0C2
:100480000000FA052DE9F047DFF83C8105460E46ED
:10049000D8F8000000F00700B0420CD2D8F80010E5
:1004A00021F007013143C8F80010D8F8000000F02F
:1004B0000700B04263D12878444C800705D56068B6
:1004C000A96820F0F000084360602878C00745D094
:1004D0006868012816D02168022816D089070029EB
:1004E0004DDA616821F0030101436160FFF716FFF7
:1004F0006968074641F2883001290FD002298146F8
:1005000019D027E021688903E9E78901E7E700BFFF
:10051000FFF704FFC11B494501D918E08146606817
:10052000C0F381000128F3D118E000BFFFF7F6FE09
:10053000C11B49450BD86068C0F381000228F5D182
:100540000CE000BFFFF7EAFEC11B494502D90320BA
:10055000BDE8F087606810F00C0FF3D1D8F80010F8
:10056000404601F00701B1420BD9016821F00701B3
:1005700031430160006800F00700B04201D0012063
:10058000E6E72878400705D56068E96820F4E06070
:10059000084360602878000706D56068296920F460
:1005A000605040EAC100606000F01CF86168084AD1
:1005B000C1F30311515CC840064908600020FFF7F1
:1005C000CDFE0020C4E700000020024000100240E1
:1005D000CC0F0008040000200148006870470000AC
:1005E0000400002010B512A385B00FCB8DE80F00DA
:1005F00013A0144B006804905A68134802F00C01D1
:1006000004290FD008290DD1C2F38344D2031DF869
:10061000041009D55A6804ABC2F340429A5CB0FB9F
:10062000F2F0484305B010BD08484843FAE700001F
:1006300002030405060708090A0B0C0D0E0F101023
:10064000010200000010024000127A0000093D0083
:100650002DE9F84F04460078B94DC00748D06868C6
:10066000C0F38100012807D06868C0F38100022828
:1006700009D16868C00306D52868800338D560684A
:1006800000286FD034E06068B0F5803F0BD010B127
:10069000B0F5A02F11D0286820F480302860286899
:1006A00020F4802002E0286840F4803028606068F0
:1006B00088B1FFF733FE064609E0286840F4802041
:1006C0002860F0E7FFF72AFE801B642875D82868A9
:1006D0008003F7D50CE0FFF721FE064605E000BFDA
:1006E000FFF71CFE801B6428F0D828688003F7D42D
:1006F0002078944E80074FF001094FF000083BD559
:10070000686810F00C0F07D06868C0F381000228F9
:1007100009D16868C00306D42868800714D5206909
:1007200001281FD110E02069B0B1C6F80090FFF792
:10073000F5FD074605E000BFFFF7F0FDC01B0228EE
:10074000C4D828688007F7D52868616920F0F800C8
:1007500040EAC10028600FE0C6F80080FFF7DEFD28
:10076000074606E0E9E000BFFFF7D8FDC01B0228FE
:1007700023D828688007F7D4207800072CD5724842
:10078000A169D9B1C0F80090FFF7C8FD074604E0A1
:10079000FFF7C4FDC01B02280FD8686A8007F7D591
:1007A0006A484FF4FA510068B0FBF1F0009000BFC6
:1007B0000098411E0091FAD20EE080E0C0F800805F
:1007C000FFF7ACFD074604E0FFF7A8FDC01B0228B9
:1007D00075D8686A8007F7D42078400760D5E86943
:1007E0000027C00008D4E86940F08050E861E8695B
:1007F000012700F08050009055480168C90513D4C6
:100800000168834641F480710160FFF787FD8246ED
:1008100006E000BFFFF782FDA0EB0A0064284ED877
:10082000DBF80000C005F5D5E06801280AD008B162
:10083000052813D0286A20F001002862286A20F0D9
:10084000040002E0286A40F001002862E06841F2FA
:10085000883B98B1FFF762FD82460BE0286A40F0C2
:1008600004002862EEE700BFFFF758FDA0EB0A0185
:1008700059455AD8286A8007F6D50CE0FFF74EFD97
:10088000824605E0FFF74AFDA0EB0A0159454CD826
:10089000286A8007F6D41FB1E86920F08050E8612B
:1008A000E06988B36968C1F38101022945D0022853
:1008B000C6F8608004D0FFF731FD044638E034E02C
:1008C000FFF72CFD074604E0FFF728FDC01B0228B8
:1008D0002BD828688001F7D4206AB0F5803F05D175
:1008E0006868A16820F4003008436860D4E9080112
:1008F0000843696821F4741108436860C6F8609081
:10090000FFF70CFD044606E015E000BFFFF706FD0B
:10091000001B022809D828688001F7D50BE000BF2A
:10092000FFF7FCFC001B022802D90320BDE8F88F6A
:1009300028688001F4D40020F8E70120F6E70000E1
:1009400000100240000042428004424204000020A5
:10095000007000404FF0E0210428086903D020F027
:1009600004000861704740F00400FAE7704710B5D2
:10097000401EB0F1807F01D3012010BD4FF0E02474
:1009800060610F21601700F01FFA0020A0610720AE
:100990002061002010BD10B5FFF7E8FF10BD7047C3
:1009A000704730B590F83C20012A20D0012280F811
:1009B0003C20022380F83D3003685C6824F070041A
:1009C0005C6003685C680D682C435C6003689C682D
:1009D00024F080049C6003689C6849680C439C6018
:1009E00080F83D20002180F83C10084630BD0220F0
:1009F00030BD10B5040003D094F83D0010B107E0FD
:100A0000012010BD002084F83C00204600F00CF8C6
:100A1000022084F83D00211D206800F04DFA0120DD
:100A200084F83D00002010BD08B500680B498842DD
:100A300012D10B48C16941F00201C161C0690022B5
:100A400000F00200009011461D20FFF7E9FCBDE810
:100A500008401D20FFF7D8BC08BD0000000400407E
:100A6000001002400168CA6842F00102CA600068D2
:100A7000016841F0010101600020704770B5044633
:100A800090F83C00012817D0012584F83C50022042
:100A900084F83D002068826822F0770222F47F42C9
:100AA00082600868502837D00DDC202859D005DC3A
:100AB00088B3102841D151E0022070BD302853D0B6
:100AC00040283AD13FE060282ED070280BD0B0F5F6
:100AD000805F03D0B0F5005F2FD110E020688168FF
:100AE00021F0070115E0CB68D1E90121206800F071
:100AF00019FA2168886840F0770088601DE0CB68AB
:100B0000D1E90121206800F00DFA2068816841F4E4
:100B10008041816011E01EE0CA684968206800F0E9
:100B200013FA5021206806E0CA684968206800F07E
:100B30001CFA6021206800F0FFF984F83D50002085
:100B400084F83C0070BDCA684968206800F0FCF970
:100B500040212068EFE700212068ECE710212068A1
:100B6000E9E720212068E6E730212068E3E77047C5
:100B700070B50446006801694FF00005C943890754
:100B800015D4C168C943890711D4E91E0161012048
:100B90002077206880698007204602D0FFF7E7FFB2
:100BA00004E000F098F8204600F096F825772068D9
:100BB0000169C943490717D4C168C943490713D418
:100BC0006FF004010161022020772068806910F431
:100BD000407F204602D0FFF7CAFF04E000F07BF818
:100BE000204600F079F8257720680169C943090794
:100BF00016D4C168C943090712D46FF00801016116
:100C0000042020772068C0698007204602D0FFF7C3
:100C1000AEFF04E000F05FF8204600F05DF82577B5
:100C200020680169C943C90617D4C168C943C90608
:100C300013D46FF010010161082020772068C0698B
:100C400010F4407F204602D0FFF791FF04E000F04F
:100C500042F8204600F040F8257720680169C94332
:100C6000C90708D1C168C943C90704D1891E0161F8
:100C7000204600F033F820680169C943090609D409
:100C8000C168C943090605D46FF08001016120469F
:100C9000FFF785FE20680169C943490609D4C16888
:100CA000C943490605D46FF040010161204600F0B8
:100CB00029F820680169C94389060BD4C168C94372
:100CC000890607D46FF0200101612046BDE870401D
:100CD000FFF766BE70BD704770470000074910B54A
:100CE000884209D14FF400510548FFF70DFBBDE8DC
:100CF00010400248FFF7B6BE10BD000008000020FB
:100D0000001001407047FEE730B5164885B0816994
:100D100041F010018161816901F010010491816944
:100D200041F020018161816901F020010491816914
:100D300041F0040181618069012200F004000A4D44
:100D40005403049021462846FFF7E2FA0120CDE93A
:100D500000400320039069462846FFF7F7F905B0E5
:100D600030BD0000001002400010014010B51448D2
:100D700086B01249016041F61F410024C0E9011408
:100D800042F20F71C0E903148461FFF732FE00B133
:100D9000FEE74FF48050009069460948FFF76EFE69
:100DA00000B1FEE7049404A905480594FFF7F9FD96
:100DB000002800D0FEE706B010BD0000000400408F
:100DC00008000020FEE770470907090E002806DA30
:100DD00000F00F0000F1E02080F8141D704700F1D2
:100DE000E02080F8001470477047704710B5FFF797
:100DF0009BFABDE81040FFF7CEBD30B58FB00121A2
:100E00000804CDE900100024029402250491CDE9E4
:100E100007504FF4E01009906846FFF719FC00B145
:100E2000FEE70F20CDE90A054FF48060CDE90C40C4
:100E300002210AA80E94FFF725FB00B1FEE7FFF799
:100E4000CBFB4FF47A71B0FBF1F0FFF790FD04207B
:100E5000FFF780FD00221146501EFFF7E1FA0FB0A8
:100E600030BD00000D48016841F00101016041689A
:100E70000B4A1140416001680A4A11400160016853
:100E800021F480210160416821F4FE0141604FF4AA
:100E90001F0181600449C0030860704700100240D0
:100EA0000000FFF8FFFFF6FE08ED00E00148FFF745
:100EB0005FBE000008000020F0B50268164B174C1A
:100EC000174D4FF08047984205D0B84203D0A0425A
:100ED00001D0A84203D122F070064A6832439842FA
:100EE00005D0B84203D0A04201D0A84203D122F4D9
:100EF0004074CA68224322F080044A692243026097
:100F00008A68C2620A688262984201D109690163F3
:100F100001214161F0BD0000002C014000040040AF
:100F20000008004010B5846842EA032224F47F449C
:100F30000A432243826010BD826822F070020A4395
:100F400042F007018160704710B5036A046A24F01B
:100F500001040462846924F0F00444EA021423F0DA
:100F60000A020A438461026210BD10B5036A23F0CD
:100F7000100303628369046A23F4704343EA023274
:100F800024F0A00343EA01118261016210BDFEE773
:100F900002E008C8121F08C1002AFAD17047704742
:100FA000002001E001C1121F002AFBD170470000A0
:100FB000FFF7C2F9FFF721FFFFF7A6FEFFF7D6FE06
:100FC0000148FFF74FFDFEE7080000200000000089
:100FD000000000000102030406070809FC0F0008D6
:100FE0000000002008000000900F00080410000816
:100FF0000800002040040000A00F000800000000CE
:0410000000A24A04FC
:04000005080000ED02
:00000001FF
